:020000000628D0
:10000800803109008801B02BB101B801AD01B301FD
:10001800AC017F23DD222000B000FC00FC367C0808
:100028003D06031D2B2921008E120E1620000E1EE0
:100038001A280E1A1D2821008E160E1220003008CC
:10004800AD000130AD052D08031968282C08393E8C
:10005800860087010108B3000030AC0AB31B0130E9
:10006800FC00FC0EFC0D21000E087C06DF397C0626
:100078008E002000B33521000E162000B2010E1E9E
:1000880043280E1A45280030B31B0130FC00FC0E33
:10009800FC0D21000E087C06DF397C068E0020004E
:1000A8000730B335B20A3202031C43280E1E5A2801
:1000B8000E1A5C2821008E1620000E1E60288E1A4B
:1000C80032290E1E2A28652821000E16DD2220005E
:1000D800B10021008E120E1620000E1E70280E1A76
:1000E800732821008E160E1204292730B90021002A
:1000F8000E1632299A227A2821000E16DD222000B7
:10010800B80021008E120E1620000E1E88280E1A26
:100118008B2821008E160E122000380824237B28F5
:1001280021000E16DD222000B80021008E120E16C6
:1001380020000E1E9C280E1A9F2821008E160E12D3
:1001480020003808DE217B2821000E16DD22200041
:10015800B80021008E120E1620000E1EB0280E1AAE
:10016800B32821008E160E122000380821227B2881
:1001780021000E16DD222000B80021008E120E1676
:1001880020000E1EC4280E1AC72821008E160E1233
:100198002000380863227B283108F03E332171089B
:1001A8002000AF007008AE00B9002F08BA00FF3079
:1001B800BB0002294C232B08B7002A08B6002908DF
:1001C800B5002808B400B9003508B4003608B500F1
:1001D8003708B600B7013408BA003508B400360845
:1001E800B5003708B600B7013408BB003508B400BD
:1001F8003608B5003708B600B7013408BC007B28BC
:1002080020003108013A03199428033A0319A82851
:10021800013A03197E28073A0319BC28143A03192E
:10022800D028013A0319D028033A0319D028043AF0
:100238000319D028013A0319D028373A0319792825
:10024800013A0319DE28D13A031980287B282100B6
:100258000E1620000E1E2D290E1A3029B72BF50078
:100268004E2921000C1423000C14582921008C1449
:1002780023008C14582921000C1523000C1558292B
:1002880021000E1523000E15582921008E15230074
:100298008E15582975088400083004020318582957
:1002A800833190300407820021009E178F309E050D
:1002B800FC309E057508F200F20DF20D1D0872065D
:1002C800833972069D001D149D149D1869291C0808
:1002D800F300F401F400F3011B08F304822923005E
:1002E8000C108C2923008C108C2923000C118C29CC
:1002F80023000E118C2923008E118C297508840087
:100308000830040203188C298331983004078200CE
:100318007408F1007308F0000800A001A101A2010F
:10032800A30122000C122000A401A501A601A70127
:1003380022000E14003020008E180130F400F50160
:10034800F601F701A0047508A1047608A20477084D
:10035800A30424081F3A2504260427040319B829EE
:10036800A035A10DA20DA30D22000E102000A40A95
:100378000319A50A0319A60A0319A70A00302702B8
:10038800031DD02900302602031DD0290030250284
:10039800031DD02920302402031C9C2922000C169E
:1003A80020002308F3002208F2002108F1002008A9
:1003B800F0000800F1000139F00021000C08700677
:1003C800FE3970068C00F13671080139F000F00D25
:1003D8000C087006FD3970068C00F1367108013979
:1003E800F000F00DF00D0C087006FB3970068C005B
:1003F800F1368C15F13671080139F000F00EF00D68
:100408000C087006DF3970068C00F1367108013966
:10041800F000F00DF00D0E087006FB3970068E0026
:10042800F13671080139F000F00DF00DF00D0E08ED
:100438007006F73970068E000800F1000139F000E7
:1004480022000C087006FE3970068C00F13671081F
:100458000139F000F00D0C087006FD3970068C00AB
:10046800F13671080139F000F00DF00D0C08700636
:10047800FB3970068C00F136F13671080139F0004D
:10048800F00EF00D0C087006DF3970068C00F1369E
:1004980071080139F000F00DF00D0E087006FB39F7
:1004A80070068E00F13671080139F000F00DF00D7C
:1004B800F00D0E087006F73970068E000800F1007E
:1004C8000139F00024000C087006FE3970068C0013
:1004D800F13671080139F000F00D0C087006FD398D
:1004E80070068C00F13671080139F000F00DF00D3E
:1004F8000C087006FB3970068C00F136710801395A
:10050800F000F00DF00DF00D0C087006F7397006CC
:100518008C00F13671080139F000F00EF00D0C086E
:100528007006DF3970068C00F136080000308E192D
:100538000130F100F1350E0C890C0139F104F13567
:100548000C0E890C0139F104F1350C0CF000F00C9B
:10055800700C0139F104F1350C0C890C0139F104E6
:10056800F1350C0C0139F104F1350C080139F104AD
:100578007108080023008E018C0121000E168E16CA
:1005880022000E128E12882321008C1622008C1253
:1005980021009513C03024008C05FF302000B900DD
:1005A800BA00BB00BC0000302122FF30DE21003041
:1005B800632A0830F001F100F1080319F12A20003C
:1005C8000E1EE32A0E0E890C0139F0047103031D77
:1005D800F0350E1AED2AF103E02A21000E127008F8
:1005E80008007008230091007108F000F1019200E2
:1005F800151315140000000023001408F200F3017D
:10060800F300F2011308F2047308F1007208F00015
:1006180008008B131513720891007308F200F30198
:100628009200151295161515700893007108F000C0
:10063800F10194009512A023230015118B170800CF
:10064800F4008C1A0800FF30F0000730F1006F2327
:100658007408F000FF30F101F2000730F3000D23B9
:1006680074082000BD000800FF30F0000730F100DA
:10067800F5227108F5007008F400FF3A031D482BB5
:1006880023302000BD00080074082000BD000800C9
:1006980091217308FB007208FA007108F9007008CC
:1006A800F8007B08AB007A08AA007908A900780846
:1006B800A8000800F001F101F00A0319F10A710815
:1006C800803AFF0080307F02031D6C2B0A307002D5
:1006D80003180800602B8B13700823009100710821
:1006E800F000F1019200151315161515A02323002B
:1006F80015118B1708008E1E7F2B8E1A812B0E1E4C
:100708007F2B0E1E0800852B21008E140E100C1254
:1007180022000C165E235E2B35293A293F295829D9
:1007280058295829442949297329762979298C294E
:100738008C298C297C297F2955309600AA3096006F
:100748009514000000000800783021009904033057
:1007580099041A1A0800AD2BB901BA01BB01BC01F2
:10076800BD012000BD2B20008E1EB72B0E1A0800DD
:0C077800B72BA823BE2238230820C02B7A
:020000040001F9
:04000E00A4FFFFDD6F
:00000001FF
